{
  "contractName": "MessageManager",
  "abi": [
    {
      "constant": true,
      "inputs": [],
      "name": "owner",
      "outputs": [
        {
          "name": "",
          "type": "address"
        }
      ],
      "payable": false,
      "stateMutability": "view",
      "type": "function"
    },
    {
      "inputs": [],
      "payable": false,
      "stateMutability": "nonpayable",
      "type": "constructor"
    },
    {
      "constant": false,
      "inputs": [
        {
          "name": "message",
          "type": "string"
        }
      ],
      "name": "setMessage",
      "outputs": [],
      "payable": false,
      "stateMutability": "nonpayable",
      "type": "function"
    },
    {
      "constant": true,
      "inputs": [],
      "name": "getMessage",
      "outputs": [
        {
          "name": "",
          "type": "string"
        }
      ],
      "payable": false,
      "stateMutability": "view",
      "type": "function"
    },
    {
      "constant": false,
      "inputs": [],
      "name": "destroy",
      "outputs": [],
      "payable": false,
      "stateMutability": "nonpayable",
      "type": "function"
    }
  ],
  "bytecode": "0x608060405234801561001057600080fd5b50336000806101000a81548173ffffffffffffffffffffffffffffffffffffffff021916908373ffffffffffffffffffffffffffffffffffffffff160217905550610443806100606000396000f3fe608060405234801561001057600080fd5b5060043610610069576000357c010000000000000000000000000000000000000000000000000000000090048063368b87721461006e57806383197ef0146101295780638da5cb5b14610133578063ce6d41de1461017d575b600080fd5b6101276004803603602081101561008457600080fd5b81019080803590602001906401000000008111156100a157600080fd5b8201836020820111156100b357600080fd5b803590602001918460018302840111640100000000831117156100d557600080fd5b91908080601f016020809104026020016040519081016040528093929190818152602001838380828437600081840152601f19601f820116905080830192505050505050509192919290505050610200565b005b61013161021a565b005b61013b6102ab565b604051808273ffffffffffffffffffffffffffffffffffffffff1673ffffffffffffffffffffffffffffffffffffffff16815260200191505060405180910390f35b6101856102d0565b6040518080602001828103825283818151815260200191508051906020019080838360005b838110156101c55780820151818401526020810190506101aa565b50505050905090810190601f1680156101f25780820380516001836020036101000a031916815260200191505b509250505060405180910390f35b8060019080519060200190610216929190610372565b5050565b6000809054906101000a900473ffffffffffffffffffffffffffffffffffffffff1673ffffffffffffffffffffffffffffffffffffffff163373ffffffffffffffffffffffffffffffffffffffff1614156102a9576000809054906101000a900473ffffffffffffffffffffffffffffffffffffffff1673ffffffffffffffffffffffffffffffffffffffff16ff5b565b6000809054906101000a900473ffffffffffffffffffffffffffffffffffffffff1681565b606060018054600181600116156101000203166002900480601f0160208091040260200160405190810160405280929190818152602001828054600181600116156101000203166002900480156103685780601f1061033d57610100808354040283529160200191610368565b820191906000526020600020905b81548152906001019060200180831161034b57829003601f168201915b5050505050905090565b828054600181600116156101000203166002900490600052602060002090601f016020900481019282601f106103b357805160ff19168380011785556103e1565b828001600101855582156103e1579182015b828111156103e05782518255916020019190600101906103c5565b5b5090506103ee91906103f2565b5090565b61041491905b808211156104105760008160009055506001016103f8565b5090565b9056fea165627a7a7230582078c7e918d322f95e7d604569ee042ca3e87e44c25fd1f4f12f8513ed613c46170029",
  "source": "pragma solidity >=0.4.21 <0.6.0;\r\n\r\ncontract MessageManager {\r\n  address payable public owner;\r\n  string _message;\r\n\r\n  constructor() public {\r\n    owner = msg.sender;\r\n  }\r\n\r\n  modifier restricted() {\r\n    if (msg.sender == owner) _;\r\n  }\r\n\r\n  function setMessage(string memory message) public {\r\n    _message = message;\r\n  }\r\n\r\n  function getMessage() public view returns(string memory) {\r\n      return _message;\r\n  }\r\n\r\n  function destroy() public restricted {\r\n      selfdestruct(owner);\r\n  }\r\n}\r\n",
  "sourcePath": "C:/Users/ab1300161/source/repos/blockchain/blockchain-sample/contracts/MessageManager.sol",
  "compiler": {
    "name": "solc",
    "version": "0.5.8+commit.23d335f2.Emscripten.clang"
  },
  "schemaVersion": "3.0.11",
  "updatedAt": "2019-07-03T20:23:24.717Z",
  "devdoc": {
    "methods": {}
  },
  "userdoc": {
    "methods": {}
  }
}